{
  "transactions": [
    {
      "hash": "0x7f00983619d267846705888f7ec6d3a672a97420063cac0a541508d49bf15eed",
      "transactionType": "CALL",
      "contractName": null,
      "contractAddress": "0x57fb0071c523d43a3f789cc73c77dfc6e5309743",
      "function": "createOrUpdateDraw(uint256,uint256,bool)",
      "arguments": [
        "1",
        "1761030891",
        "true"
      ],
      "transaction": {
        "from": "0xe4885a25c43c8d6087f8d5a1162f9b869c08c98c",
        "to": "0x57fb0071c523d43a3f789cc73c77dfc6e5309743",
        "gas": "0x17c46",
        "value": "0x0",
        "input": "0xfa52049e00000000000000000000000000000000000000000000000000000000000000010000000000000000000000000000000000000000000000000000000068f732eb0000000000000000000000000000000000000000000000000000000000000001",
        "nonce": "0x47",
        "chainId": "0x3e9"
      },
      "additionalContracts": [],
      "isFixedGasLimit": false
    },
    {
      "hash": "0xcc5a09304b8ddcbe30ca0a40cd63a08ab80671075c6829721003b0563eba9a9e",
      "transactionType": "CALL",
      "contractName": null,
      "contractAddress": "0x57fb0071c523d43a3f789cc73c77dfc6e5309743",
      "function": "setCurrentDraw(uint256)",
      "arguments": [
        "1"
      ],
      "transaction": {
        "from": "0xe4885a25c43c8d6087f8d5a1162f9b869c08c98c",
        "to": "0x57fb0071c523d43a3f789cc73c77dfc6e5309743",
        "gas": "0xf917",
        "value": "0x0",
        "input": "0xc35ab62b0000000000000000000000000000000000000000000000000000000000000001",
        "nonce": "0x48",
        "chainId": "0x3e9"
      },
      "additionalContracts": [],
      "isFixedGasLimit": false
    }
  ],
  "receipts": [
    {
      "status": "0x1",
      "cumulativeGasUsed": "0x11350",
      "logs": [
        {
          "address": "0x57fb0071c523d43a3f789cc73c77dfc6e5309743",
          "topics": [
            "0x9e5aa1895cac644f584979428802a3ac9d38f05cfc30e374b4f236cf36fb1009",
            "0x0000000000000000000000000000000000000000000000000000000000000001"
          ],
          "data": "0x0000000000000000000000000000000000000000000000000000000068f732eb",
          "blockHash": "0x52c74d3fb190267e27fc6696881e40f13a8e0137df157b4b6f1d9e76b3e6cada",
          "blockNumber": "0xbe26bc0",
          "transactionHash": "0x7f00983619d267846705888f7ec6d3a672a97420063cac0a541508d49bf15eed",
          "transactionIndex": "0x0",
          "logIndex": "0x0",
          "removed": false
        }
      ],
      "logsBloom": "0x00000000000000000000000020000000000000000000000000000000000000000000000000000000000400000000000000000000000000000000000000040000000000000000000000000000000000000000000000040000000000000000000000000000000000000000000000000000000000000000000000000000000000000000000000100000000000000000000000000000000000000000000000000000000000000000000000000000000000000000000000000000000000000000000000000000000000080000000000000800000000000000000000000000000040000000000000000000008000000000000000000000000000000000000000000000",
      "type": "0x2",
      "transactionHash": "0x7f00983619d267846705888f7ec6d3a672a97420063cac0a541508d49bf15eed",
      "transactionIndex": "0x0",
      "blockHash": "0x52c74d3fb190267e27fc6696881e40f13a8e0137df157b4b6f1d9e76b3e6cada",
      "blockNumber": "0xbe26bc0",
      "gasUsed": "0x11350",
      "effectiveGasPrice": "0x5d518aa80",
      "from": "0xe4885a25c43c8d6087f8d5a1162f9b869c08c98c",
      "to": "0x57fb0071c523d43a3f789cc73c77dfc6e5309743",
      "contractAddress": null
    },
    {
      "status": "0x1",
      "cumulativeGasUsed": "0x1c7a7",
      "logs": [],
      "logsBloom": "0x00000000000000000000000000000000000000000000000000000000000000000000000000000000000000000000000000000000000000000000000000000000000000000000000000000000000000000000000000000000000000000000000000000000000000000000000000000000000000000000000000000000000000000000000000000000000000000000000000000000000000000000000000000000000000000000000000000000000000000000000000000000000000000000000000000000000000000000000000000000000000000000000000000000000000000000000000000000000000000000000000000000000000000000000000000000",
      "type": "0x2",
      "transactionHash": "0xcc5a09304b8ddcbe30ca0a40cd63a08ab80671075c6829721003b0563eba9a9e",
      "transactionIndex": "0x1",
      "blockHash": "0x52c74d3fb190267e27fc6696881e40f13a8e0137df157b4b6f1d9e76b3e6cada",
      "blockNumber": "0xbe26bc0",
      "gasUsed": "0xb457",
      "effectiveGasPrice": "0x5d518aa80",
      "from": "0xe4885a25c43c8d6087f8d5a1162f9b869c08c98c",
      "to": "0x57fb0071c523d43a3f789cc73c77dfc6e5309743",
      "contractAddress": null
    }
  ],
  "libraries": [],
  "pending": [],
  "returns": {},
  "timestamp": 1761027293662,
  "chain": 1001,
  "commit": "dc988ab"
}