{
  "transactions": [
    {
      "hash": "0xb3f2544143299d19bf3af542d6f5b59c2b86c8d14d8d2da4e197732943822ef3",
      "transactionType": "CALL",
      "contractName": null,
      "contractAddress": "0x098da63edaf32da8e69f9ad3a00368262edec4be",
      "function": "createOrUpdateDraw(uint256,uint256,bool)",
      "arguments": [
        "1",
        "1760940575",
        "true"
      ],
      "transaction": {
        "from": "0xe4885a25c43c8d6087f8d5a1162f9b869c08c98c",
        "to": "0x098da63edaf32da8e69f9ad3a00368262edec4be",
        "gas": "0x1939d",
        "value": "0x0",
        "input": "0xfa52049e00000000000000000000000000000000000000000000000000000000000000010000000000000000000000000000000000000000000000000000000068f5d21f0000000000000000000000000000000000000000000000000000000000000001",
        "nonce": "0x3",
        "chainId": "0x3e9"
      },
      "additionalContracts": [],
      "isFixedGasLimit": false
    },
    {
      "hash": "0x6d2d50b76d9207ad2f7f7bed330e0ac2ea92882713b20874f24ced1d1d40e1f4",
      "transactionType": "CALL",
      "contractName": null,
      "contractAddress": "0x098da63edaf32da8e69f9ad3a00368262edec4be",
      "function": "setCurrentDraw(uint256)",
      "arguments": [
        "1"
      ],
      "transaction": {
        "from": "0xe4885a25c43c8d6087f8d5a1162f9b869c08c98c",
        "to": "0x098da63edaf32da8e69f9ad3a00368262edec4be",
        "gas": "0x1074f",
        "value": "0x0",
        "input": "0xc35ab62b0000000000000000000000000000000000000000000000000000000000000001",
        "nonce": "0x4",
        "chainId": "0x3e9"
      },
      "additionalContracts": [],
      "isFixedGasLimit": false
    }
  ],
  "receipts": [
    {
      "status": "0x1",
      "cumulativeGasUsed": "0x113fa",
      "logs": [
        {
          "address": "0x098da63edaf32da8e69f9ad3a00368262edec4be",
          "topics": [
            "0x9e5aa1895cac644f584979428802a3ac9d38f05cfc30e374b4f236cf36fb1009",
            "0x0000000000000000000000000000000000000000000000000000000000000001"
          ],
          "data": "0x0000000000000000000000000000000000000000000000000000000068f5d21f",
          "blockHash": "0x0341e9f596a8f4a1f37def716255a349ae7813496c8720a722c602e7d4c37921",
          "blockNumber": "0xbe10afa",
          "transactionHash": "0xb3f2544143299d19bf3af542d6f5b59c2b86c8d14d8d2da4e197732943822ef3",
          "transactionIndex": "0x0",
          "logIndex": "0x0",
          "removed": false
        }
      ],
      "logsBloom": "0x00000000000000000000000000000000000000000000000000000000000000000000000000000000000400000000000000000000000000000000000000040000000000000000000000000000000000000000000000040000000000000000000000040000000000000000000000000000000000010000000000000000000000000000000000100000000000000000000000000000000000000000000000000000000000000000000000000000000000000000000000000000000000000000000000000080000000080000000000000000000000000000000000000000000040000000000000000000000000000000000000000000000000000000000000000000",
      "type": "0x2",
      "transactionHash": "0xb3f2544143299d19bf3af542d6f5b59c2b86c8d14d8d2da4e197732943822ef3",
      "transactionIndex": "0x0",
      "blockHash": "0x0341e9f596a8f4a1f37def716255a349ae7813496c8720a722c602e7d4c37921",
      "blockNumber": "0xbe10afa",
      "gasUsed": "0x113fa",
      "effectiveGasPrice": "0x61e1caec0",
      "from": "0xe4885a25c43c8d6087f8d5a1162f9b869c08c98c",
      "to": "0x098da63edaf32da8e69f9ad3a00368262edec4be",
      "contractAddress": null
    },
    {
      "status": "0x1",
      "cumulativeGasUsed": "0x1c805",
      "logs": [],
      "logsBloom": "0x00000000000000000000000000000000000000000000000000000000000000000000000000000000000000000000000000000000000000000000000000000000000000000000000000000000000000000000000000000000000000000000000000000000000000000000000000000000000000000000000000000000000000000000000000000000000000000000000000000000000000000000000000000000000000000000000000000000000000000000000000000000000000000000000000000000000000000000000000000000000000000000000000000000000000000000000000000000000000000000000000000000000000000000000000000000",
      "type": "0x2",
      "transactionHash": "0x6d2d50b76d9207ad2f7f7bed330e0ac2ea92882713b20874f24ced1d1d40e1f4",
      "transactionIndex": "0x1",
      "blockHash": "0x0341e9f596a8f4a1f37def716255a349ae7813496c8720a722c602e7d4c37921",
      "blockNumber": "0xbe10afa",
      "gasUsed": "0xb40b",
      "effectiveGasPrice": "0x61e1caec0",
      "from": "0xe4885a25c43c8d6087f8d5a1162f9b869c08c98c",
      "to": "0x098da63edaf32da8e69f9ad3a00368262edec4be",
      "contractAddress": null
    }
  ],
  "libraries": [],
  "pending": [],
  "returns": {},
  "timestamp": 1760936982651,
  "chain": 1001,
  "commit": "dc988ab"
}