{
  "transactions": [
    {
      "hash": "0xf5fd1d01fb620a477a4d5cd469cb13ead7f93b50f88e388af60f87e5a32c8667",
      "transactionType": "CALL",
      "contractName": null,
      "contractAddress": "0x1fd02347ed80ef3e182d24dc16c59398e4525140",
      "function": "createOrUpdateDraw(uint256,uint256,bool)",
      "arguments": [
        "1",
        "1760931287",
        "true"
      ],
      "transaction": {
        "from": "0xe4885a25c43c8d6087f8d5a1162f9b869c08c98c",
        "to": "0x1fd02347ed80ef3e182d24dc16c59398e4525140",
        "gas": "0x1939d",
        "value": "0x0",
        "input": "0xfa52049e00000000000000000000000000000000000000000000000000000000000000010000000000000000000000000000000000000000000000000000000068f5add70000000000000000000000000000000000000000000000000000000000000001",
        "nonce": "0x1",
        "chainId": "0x8274f"
      },
      "additionalContracts": [],
      "isFixedGasLimit": false
    },
    {
      "hash": "0x625606f2e314b9b718a50c8cadb8877a23df0c7bc15d09bcd6f12c036962d5bd",
      "transactionType": "CALL",
      "contractName": null,
      "contractAddress": "0x1fd02347ed80ef3e182d24dc16c59398e4525140",
      "function": "setCurrentDraw(uint256)",
      "arguments": [
        "1"
      ],
      "transaction": {
        "from": "0xe4885a25c43c8d6087f8d5a1162f9b869c08c98c",
        "to": "0x1fd02347ed80ef3e182d24dc16c59398e4525140",
        "gas": "0x1074f",
        "value": "0x0",
        "input": "0xc35ab62b0000000000000000000000000000000000000000000000000000000000000001",
        "nonce": "0x2",
        "chainId": "0x8274f"
      },
      "additionalContracts": [],
      "isFixedGasLimit": false
    }
  ],
  "receipts": [
    {
      "status": "0x1",
      "cumulativeGasUsed": "0x113fa",
      "logs": [
        {
          "address": "0x1fd02347ed80ef3e182d24dc16c59398e4525140",
          "topics": [
            "0x9e5aa1895cac644f584979428802a3ac9d38f05cfc30e374b4f236cf36fb1009",
            "0x0000000000000000000000000000000000000000000000000000000000000001"
          ],
          "data": "0x0000000000000000000000000000000000000000000000000000000068f5add7",
          "blockHash": "0xfb74eb527f1d005a89c41e43308484efa9390863f867bd43f8eb1610f26307aa",
          "blockNumber": "0xd760f5",
          "transactionHash": "0xf5fd1d01fb620a477a4d5cd469cb13ead7f93b50f88e388af60f87e5a32c8667",
          "transactionIndex": "0x0",
          "logIndex": "0x0",
          "removed": false
        }
      ],
      "logsBloom": "0x00000000000000000000000000000000000000000000000000000000000000000000000000000000000400000000000000000000000000000000010000040000000000000000000000000100000000000000000000040000000000000000000000000000000000000000000000000000000000000000000000000000000000000000000000100000000000000000000000000000000000000000000000000000000000000000000000010000000000000000000000000000000000000000000000000000000000080000000000000000000000000000000000000000000040000000000000000000000000000000000000000000000000000000000000000000",
      "type": "0x2",
      "transactionHash": "0xf5fd1d01fb620a477a4d5cd469cb13ead7f93b50f88e388af60f87e5a32c8667",
      "transactionIndex": "0x0",
      "blockHash": "0xfb74eb527f1d005a89c41e43308484efa9390863f867bd43f8eb1610f26307aa",
      "blockNumber": "0xd760f5",
      "gasUsed": "0x113fa",
      "effectiveGasPrice": "0xef426c",
      "from": "0xe4885a25c43c8d6087f8d5a1162f9b869c08c98c",
      "to": "0x1fd02347ed80ef3e182d24dc16c59398e4525140",
      "contractAddress": null,
      "l1Fee": "0x7654b"
    },
    {
      "status": "0x1",
      "cumulativeGasUsed": "0xb40b",
      "logs": [],
      "logsBloom": "0x00000000000000000000000000000000000000000000000000000000000000000000000000000000000000000000000000000000000000000000000000000000000000000000000000000000000000000000000000000000000000000000000000000000000000000000000000000000000000000000000000000000000000000000000000000000000000000000000000000000000000000000000000000000000000000000000000000000000000000000000000000000000000000000000000000000000000000000000000000000000000000000000000000000000000000000000000000000000000000000000000000000000000000000000000000000",
      "type": "0x2",
      "transactionHash": "0x625606f2e314b9b718a50c8cadb8877a23df0c7bc15d09bcd6f12c036962d5bd",
      "transactionIndex": "0x0",
      "blockHash": "0xb38e20b8a2db24f5bba8ae3a0092933ebf18015334a3fa6bb44b7cea67e2374d",
      "blockNumber": "0xd760f6",
      "gasUsed": "0xb40b",
      "effectiveGasPrice": "0xef426c",
      "from": "0xe4885a25c43c8d6087f8d5a1162f9b869c08c98c",
      "to": "0x1fd02347ed80ef3e182d24dc16c59398e4525140",
      "contractAddress": null,
      "l1Fee": "0x51b46"
    }
  ],
  "libraries": [],
  "pending": [],
  "returns": {},
  "timestamp": 1760927695928,
  "chain": 534351,
  "commit": "dc988ab"
}